{
	"data": {
		"bytecode": {
			"linkReferences": {},
			"object": "608060405269021e19e0c9bab24000006001556001546002556611c37937e08000600355662386f26fc1000060045567016345785d8a000060055534801561004657600080fd5b506103b2806100566000396000f3fe608060405234801561001057600080fd5b50600436106100885760003560e01c806395d89b411161005b57806395d89b4114610105578063a6b513ee14610123578063bf58390314610141578063c637bd2c1461015f57610088565b806306fdde031461008d57806318160ddd146100ab5780637d5fbd92146100c95780638da5cb5b146100e7575b600080fd5b61009561017d565b6040516100a291906102a3565b60405180910390f35b6100b36101b6565b6040516100c091906102c5565b60405180910390f35b6100d16101bc565b6040516100de91906102c5565b60405180910390f35b6100ef6101c2565b6040516100fc9190610288565b60405180910390f35b61010d6101e6565b60405161011a91906102a3565b60405180910390f35b61012b61021f565b60405161013891906102c5565b60405180910390f35b610149610225565b60405161015691906102c5565b60405180910390f35b61016761022b565b60405161017491906102c5565b60405180910390f35b6040518060400160405280600c81526020017f50726f6a656374546f6b656e000000000000000000000000000000000000000081525081565b60015481565b60045481565b60008054906101000a900473ffffffffffffffffffffffffffffffffffffffff1681565b6040518060400160405280600a81526020017f4b727970746f6e6974650000000000000000000000000000000000000000000081525081565b60055481565b60025481565b60035481565b61023a816102fc565b82525050565b600061024b826102e0565b61025581856102eb565b9350610265818560208601610338565b61026e8161036b565b840191505092915050565b6102828161032e565b82525050565b600060208201905061029d6000830184610231565b92915050565b600060208201905081810360008301526102bd8184610240565b905092915050565b60006020820190506102da6000830184610279565b92915050565b600081519050919050565b600082825260208201905092915050565b60006103078261030e565b9050919050565b600073ffffffffffffffffffffffffffffffffffffffff82169050919050565b6000819050919050565b60005b8381101561035657808201518184015260208101905061033b565b83811115610365576000848401525b50505050565b6000601f19601f830116905091905056fea2646970667358221220261919871c4d3084ee3b463fd3818585cdad3bf253b82fe2f149e3c2f13a00f164736f6c63430008070033",
			"opcodes": "PUSH1 0x80 PUSH1 0x40 MSTORE PUSH10 0x21E19E0C9BAB2400000 PUSH1 0x1 SSTORE PUSH1 0x1 SLOAD PUSH1 0x2 SSTORE PUSH7 0x11C37937E08000 PUSH1 0x3 SSTORE PUSH7 0x2386F26FC10000 PUSH1 0x4 SSTORE PUSH8 0x16345785D8A0000 PUSH1 0x5 SSTORE CALLVALUE DUP1 ISZERO PUSH2 0x46 JUMPI PUSH1 0x0 DUP1 REVERT JUMPDEST POP PUSH2 0x3B2 DUP1 PUSH2 0x56 PUSH1 0x0 CODECOPY PUSH1 0x0 RETURN INVALID PUSH1 0x80 PUSH1 0x40 MSTORE CALLVALUE DUP1 ISZERO PUSH2 0x10 JUMPI PUSH1 0x0 DUP1 REVERT JUMPDEST POP PUSH1 0x4 CALLDATASIZE LT PUSH2 0x88 JUMPI PUSH1 0x0 CALLDATALOAD PUSH1 0xE0 SHR DUP1 PUSH4 0x95D89B41 GT PUSH2 0x5B JUMPI DUP1 PUSH4 0x95D89B41 EQ PUSH2 0x105 JUMPI DUP1 PUSH4 0xA6B513EE EQ PUSH2 0x123 JUMPI DUP1 PUSH4 0xBF583903 EQ PUSH2 0x141 JUMPI DUP1 PUSH4 0xC637BD2C EQ PUSH2 0x15F JUMPI PUSH2 0x88 JUMP JUMPDEST DUP1 PUSH4 0x6FDDE03 EQ PUSH2 0x8D JUMPI DUP1 PUSH4 0x18160DDD EQ PUSH2 0xAB JUMPI DUP1 PUSH4 0x7D5FBD92 EQ PUSH2 0xC9 JUMPI DUP1 PUSH4 0x8DA5CB5B EQ PUSH2 0xE7 JUMPI JUMPDEST PUSH1 0x0 DUP1 REVERT JUMPDEST PUSH2 0x95 PUSH2 0x17D JUMP JUMPDEST PUSH1 0x40 MLOAD PUSH2 0xA2 SWAP2 SWAP1 PUSH2 0x2A3 JUMP JUMPDEST PUSH1 0x40 MLOAD DUP1 SWAP2 SUB SWAP1 RETURN JUMPDEST PUSH2 0xB3 PUSH2 0x1B6 JUMP JUMPDEST PUSH1 0x40 MLOAD PUSH2 0xC0 SWAP2 SWAP1 PUSH2 0x2C5 JUMP JUMPDEST PUSH1 0x40 MLOAD DUP1 SWAP2 SUB SWAP1 RETURN JUMPDEST PUSH2 0xD1 PUSH2 0x1BC JUMP JUMPDEST PUSH1 0x40 MLOAD PUSH2 0xDE SWAP2 SWAP1 PUSH2 0x2C5 JUMP JUMPDEST PUSH1 0x40 MLOAD DUP1 SWAP2 SUB SWAP1 RETURN JUMPDEST PUSH2 0xEF PUSH2 0x1C2 JUMP JUMPDEST PUSH1 0x40 MLOAD PUSH2 0xFC SWAP2 SWAP1 PUSH2 0x288 JUMP JUMPDEST PUSH1 0x40 MLOAD DUP1 SWAP2 SUB SWAP1 RETURN JUMPDEST PUSH2 0x10D PUSH2 0x1E6 JUMP JUMPDEST PUSH1 0x40 MLOAD PUSH2 0x11A SWAP2 SWAP1 PUSH2 0x2A3 JUMP JUMPDEST PUSH1 0x40 MLOAD DUP1 SWAP2 SUB SWAP1 RETURN JUMPDEST PUSH2 0x12B PUSH2 0x21F JUMP JUMPDEST PUSH1 0x40 MLOAD PUSH2 0x138 SWAP2 SWAP1 PUSH2 0x2C5 JUMP JUMPDEST PUSH1 0x40 MLOAD DUP1 SWAP2 SUB SWAP1 RETURN JUMPDEST PUSH2 0x149 PUSH2 0x225 JUMP JUMPDEST PUSH1 0x40 MLOAD PUSH2 0x156 SWAP2 SWAP1 PUSH2 0x2C5 JUMP JUMPDEST PUSH1 0x40 MLOAD DUP1 SWAP2 SUB SWAP1 RETURN JUMPDEST PUSH2 0x167 PUSH2 0x22B JUMP JUMPDEST PUSH1 0x40 MLOAD PUSH2 0x174 SWAP2 SWAP1 PUSH2 0x2C5 JUMP JUMPDEST PUSH1 0x40 MLOAD DUP1 SWAP2 SUB SWAP1 RETURN JUMPDEST PUSH1 0x40 MLOAD DUP1 PUSH1 0x40 ADD PUSH1 0x40 MSTORE DUP1 PUSH1 0xC DUP2 MSTORE PUSH1 0x20 ADD PUSH32 0x50726F6A656374546F6B656E0000000000000000000000000000000000000000 DUP2 MSTORE POP DUP2 JUMP JUMPDEST PUSH1 0x1 SLOAD DUP2 JUMP JUMPDEST PUSH1 0x4 SLOAD DUP2 JUMP JUMPDEST PUSH1 0x0 DUP1 SLOAD SWAP1 PUSH2 0x100 EXP SWAP1 DIV PUSH20 0xFFFFFFFFFFFFFFFFFFFFFFFFFFFFFFFFFFFFFFFF AND DUP2 JUMP JUMPDEST PUSH1 0x40 MLOAD DUP1 PUSH1 0x40 ADD PUSH1 0x40 MSTORE DUP1 PUSH1 0xA DUP2 MSTORE PUSH1 0x20 ADD PUSH32 0x4B727970746F6E69746500000000000000000000000000000000000000000000 DUP2 MSTORE POP DUP2 JUMP JUMPDEST PUSH1 0x5 SLOAD DUP2 JUMP JUMPDEST PUSH1 0x2 SLOAD DUP2 JUMP JUMPDEST PUSH1 0x3 SLOAD DUP2 JUMP JUMPDEST PUSH2 0x23A DUP2 PUSH2 0x2FC JUMP JUMPDEST DUP3 MSTORE POP POP JUMP JUMPDEST PUSH1 0x0 PUSH2 0x24B DUP3 PUSH2 0x2E0 JUMP JUMPDEST PUSH2 0x255 DUP2 DUP6 PUSH2 0x2EB JUMP JUMPDEST SWAP4 POP PUSH2 0x265 DUP2 DUP6 PUSH1 0x20 DUP7 ADD PUSH2 0x338 JUMP JUMPDEST PUSH2 0x26E DUP2 PUSH2 0x36B JUMP JUMPDEST DUP5 ADD SWAP2 POP POP SWAP3 SWAP2 POP POP JUMP JUMPDEST PUSH2 0x282 DUP2 PUSH2 0x32E JUMP JUMPDEST DUP3 MSTORE POP POP JUMP JUMPDEST PUSH1 0x0 PUSH1 0x20 DUP3 ADD SWAP1 POP PUSH2 0x29D PUSH1 0x0 DUP4 ADD DUP5 PUSH2 0x231 JUMP JUMPDEST SWAP3 SWAP2 POP POP JUMP JUMPDEST PUSH1 0x0 PUSH1 0x20 DUP3 ADD SWAP1 POP DUP2 DUP2 SUB PUSH1 0x0 DUP4 ADD MSTORE PUSH2 0x2BD DUP2 DUP5 PUSH2 0x240 JUMP JUMPDEST SWAP1 POP SWAP3 SWAP2 POP POP JUMP JUMPDEST PUSH1 0x0 PUSH1 0x20 DUP3 ADD SWAP1 POP PUSH2 0x2DA PUSH1 0x0 DUP4 ADD DUP5 PUSH2 0x279 JUMP JUMPDEST SWAP3 SWAP2 POP POP JUMP JUMPDEST PUSH1 0x0 DUP2 MLOAD SWAP1 POP SWAP2 SWAP1 POP JUMP JUMPDEST PUSH1 0x0 DUP3 DUP3 MSTORE PUSH1 0x20 DUP3 ADD SWAP1 POP SWAP3 SWAP2 POP POP JUMP JUMPDEST PUSH1 0x0 PUSH2 0x307 DUP3 PUSH2 0x30E JUMP JUMPDEST SWAP1 POP SWAP2 SWAP1 POP JUMP JUMPDEST PUSH1 0x0 PUSH20 0xFFFFFFFFFFFFFFFFFFFFFFFFFFFFFFFFFFFFFFFF DUP3 AND SWAP1 POP SWAP2 SWAP1 POP JUMP JUMPDEST PUSH1 0x0 DUP2 SWAP1 POP SWAP2 SWAP1 POP JUMP JUMPDEST PUSH1 0x0 JUMPDEST DUP4 DUP2 LT ISZERO PUSH2 0x356 JUMPI DUP1 DUP3 ADD MLOAD DUP2 DUP5 ADD MSTORE PUSH1 0x20 DUP2 ADD SWAP1 POP PUSH2 0x33B JUMP JUMPDEST DUP4 DUP2 GT ISZERO PUSH2 0x365 JUMPI PUSH1 0x0 DUP5 DUP5 ADD MSTORE JUMPDEST POP POP POP POP JUMP JUMPDEST PUSH1 0x0 PUSH1 0x1F NOT PUSH1 0x1F DUP4 ADD AND SWAP1 POP SWAP2 SWAP1 POP JUMP INVALID LOG2 PUSH5 0x6970667358 0x22 SLT KECCAK256 0x26 NOT NOT DUP8 SHR 0x4D ADDRESS DUP5 0xEE EXTCODESIZE CHAINID EXTCODEHASH 0xD3 DUP2 DUP6 DUP6 0xCD 0xAD EXTCODESIZE CALLCODE MSTORE8 0xB8 0x2F 0xE2 CALL 0x49 0xE3 0xC2 CALL GASPRICE STOP CALL PUSH5 0x736F6C6343 STOP ADDMOD SMOD STOP CALLER "
		},
		"gasEstimates": {
			"creation": {
				"codeDepositCost": "189200",
				"executionCost": "112862",
				"totalCost": "302062"
			},
			"external": {
				"finalPrice()": "2451",
				"firstMonthPrice()": "2495",
				"name()": "infinite",
				"owner()": "2578",
				"remainingTokens()": "2473",
				"secondMonthPrice()": "2474",
				"symbol()": "infinite",
				"totalSupply()": "2452"
			}
		},
		"methodIdentifiers": {
			"finalPrice()": "a6b513ee",
			"firstMonthPrice()": "c637bd2c",
			"name()": "06fdde03",
			"owner()": "8da5cb5b",
			"remainingTokens()": "bf583903",
			"secondMonthPrice()": "7d5fbd92",
			"symbol()": "95d89b41",
			"totalSupply()": "18160ddd"
		}
	},
	"abi": [
		{
			"inputs": [],
			"name": "finalPrice",
			"outputs": [
				{
					"internalType": "uint256",
					"name": "",
					"type": "uint256"
				}
			],
			"stateMutability": "view",
			"type": "function"
		},
		{
			"inputs": [],
			"name": "firstMonthPrice",
			"outputs": [
				{
					"internalType": "uint256",
					"name": "",
					"type": "uint256"
				}
			],
			"stateMutability": "view",
			"type": "function"
		},
		{
			"inputs": [],
			"name": "name",
			"outputs": [
				{
					"internalType": "string",
					"name": "",
					"type": "string"
				}
			],
			"stateMutability": "view",
			"type": "function"
		},
		{
			"inputs": [],
			"name": "owner",
			"outputs": [
				{
					"internalType": "address",
					"name": "",
					"type": "address"
				}
			],
			"stateMutability": "view",
			"type": "function"
		},
		{
			"inputs": [],
			"name": "remainingTokens",
			"outputs": [
				{
					"internalType": "uint256",
					"name": "",
					"type": "uint256"
				}
			],
			"stateMutability": "view",
			"type": "function"
		},
		{
			"inputs": [],
			"name": "secondMonthPrice",
			"outputs": [
				{
					"internalType": "uint256",
					"name": "",
					"type": "uint256"
				}
			],
			"stateMutability": "view",
			"type": "function"
		},
		{
			"inputs": [],
			"name": "symbol",
			"outputs": [
				{
					"internalType": "string",
					"name": "",
					"type": "string"
				}
			],
			"stateMutability": "view",
			"type": "function"
		},
		{
			"inputs": [],
			"name": "totalSupply",
			"outputs": [
				{
					"internalType": "uint256",
					"name": "",
					"type": "uint256"
				}
			],
			"stateMutability": "view",
			"type": "function"
		}
	]
}